{
  "_format": "hh-sol-artifact-1",
  "contractName": "WeLockLove",
  "sourceName": "contracts/welocklove.sol",
  "abi": [
    {
      "inputs": [
        {
          "internalType": "string",
          "name": "_name",
          "type": "string"
        },
        {
          "internalType": "string",
          "name": "_symbol",
          "type": "string"
        },
        {
          "internalType": "string",
          "name": "_initBaseURI",
          "type": "string"
        }
      ],
      "stateMutability": "nonpayable",
      "type": "constructor"
    },
    {
      "anonymous": false,
      "inputs": [
        {
          "indexed": true,
          "internalType": "address",
          "name": "account",
          "type": "address"
        }
      ],
      "name": "AddedToWhitelist",
      "type": "event"
    },
    {
      "anonymous": false,
      "inputs": [
        {
          "indexed": true,
          "internalType": "address",
          "name": "owner",
          "type": "address"
        },
        {
          "indexed": true,
          "internalType": "address",
          "name": "approved",
          "type": "address"
        },
        {
          "indexed": true,
          "internalType": "uint256",
          "name": "tokenId",
          "type": "uint256"
        }
      ],
      "name": "Approval",
      "type": "event"
    },
    {
      "anonymous": false,
      "inputs": [
        {
          "indexed": true,
          "internalType": "address",
          "name": "owner",
          "type": "address"
        },
        {
          "indexed": true,
          "internalType": "address",
          "name": "operator",
          "type": "address"
        },
        {
          "indexed": false,
          "internalType": "bool",
          "name": "approved",
          "type": "bool"
        }
      ],
      "name": "ApprovalForAll",
      "type": "event"
    },
    {
      "anonymous": false,
      "inputs": [
        {
          "indexed": true,
          "internalType": "address",
          "name": "previousOwner",
          "type": "address"
        },
        {
          "indexed": true,
          "internalType": "address",
          "name": "newOwner",
          "type": "address"
        }
      ],
      "name": "OwnershipTransferred",
      "type": "event"
    },
    {
      "anonymous": false,
      "inputs": [
        {
          "indexed": true,
          "internalType": "address",
          "name": "from",
          "type": "address"
        },
        {
          "indexed": true,
          "internalType": "address",
          "name": "to",
          "type": "address"
        },
        {
          "indexed": true,
          "internalType": "uint256",
          "name": "tokenId",
          "type": "uint256"
        }
      ],
      "name": "Transfer",
      "type": "event"
    },
    {
      "anonymous": false,
      "inputs": [
        {
          "indexed": true,
          "internalType": "address",
          "name": "account",
          "type": "address"
        }
      ],
      "name": "removedFromWhiteList",
      "type": "event"
    },
    {
      "inputs": [
        {
          "internalType": "address",
          "name": "_address",
          "type": "address"
        }
      ],
      "name": "addToWhitelist",
      "outputs": [],
      "stateMutability": "nonpayable",
      "type": "function"
    },
    {
      "inputs": [
        {
          "internalType": "address",
          "name": "to",
          "type": "address"
        },
        {
          "internalType": "uint256",
          "name": "tokenId",
          "type": "uint256"
        }
      ],
      "name": "approve",
      "outputs": [],
      "stateMutability": "nonpayable",
      "type": "function"
    },
    {
      "inputs": [
        {
          "internalType": "address",
          "name": "owner",
          "type": "address"
        }
      ],
      "name": "balanceOf",
      "outputs": [
        {
          "internalType": "uint256",
          "name": "",
          "type": "uint256"
        }
      ],
      "stateMutability": "view",
      "type": "function"
    },
    {
      "inputs": [
        {
          "internalType": "uint256",
          "name": "tokenId",
          "type": "uint256"
        }
      ],
      "name": "getApproved",
      "outputs": [
        {
          "internalType": "address",
          "name": "",
          "type": "address"
        }
      ],
      "stateMutability": "view",
      "type": "function"
    },
    {
      "inputs": [
        {
          "internalType": "uint256",
          "name": "_tokenId",
          "type": "uint256"
        }
      ],
      "name": "getCartHash",
      "outputs": [
        {
          "internalType": "bytes32",
          "name": "",
          "type": "bytes32"
        }
      ],
      "stateMutability": "view",
      "type": "function"
    },
    {
      "inputs": [
        {
          "internalType": "uint256",
          "name": "tokenId",
          "type": "uint256"
        }
      ],
      "name": "getCategory",
      "outputs": [
        {
          "internalType": "uint256",
          "name": "",
          "type": "uint256"
        }
      ],
      "stateMutability": "pure",
      "type": "function"
    },
    {
      "inputs": [
        {
          "internalType": "bytes32",
          "name": "_messageHash",
          "type": "bytes32"
        }
      ],
      "name": "getEthSignedMessageHash",
      "outputs": [
        {
          "internalType": "bytes32",
          "name": "",
          "type": "bytes32"
        }
      ],
      "stateMutability": "pure",
      "type": "function"
    },
    {
      "inputs": [
        {
          "internalType": "address",
          "name": "_address",
          "type": "address"
        },
        {
          "internalType": "uint256",
          "name": "catId",
          "type": "uint256"
        }
      ],
      "name": "hasMintThisCat",
      "outputs": [
        {
          "internalType": "bool",
          "name": "",
          "type": "bool"
        }
      ],
      "stateMutability": "view",
      "type": "function"
    },
    {
      "inputs": [
        {
          "internalType": "address",
          "name": "_signer",
          "type": "address"
        },
        {
          "internalType": "uint256",
          "name": "_tokenId",
          "type": "uint256"
        },
        {
          "internalType": "bytes",
          "name": "signature",
          "type": "bytes"
        }
      ],
      "name": "hasReserved",
      "outputs": [
        {
          "internalType": "bool",
          "name": "",
          "type": "bool"
        }
      ],
      "stateMutability": "view",
      "type": "function"
    },
    {
      "inputs": [
        {
          "internalType": "address",
          "name": "owner",
          "type": "address"
        },
        {
          "internalType": "address",
          "name": "operator",
          "type": "address"
        }
      ],
      "name": "isApprovedForAll",
      "outputs": [
        {
          "internalType": "bool",
          "name": "",
          "type": "bool"
        }
      ],
      "stateMutability": "view",
      "type": "function"
    },
    {
      "inputs": [
        {
          "internalType": "address",
          "name": "_address",
          "type": "address"
        }
      ],
      "name": "isWhitelisted",
      "outputs": [
        {
          "internalType": "bool",
          "name": "",
          "type": "bool"
        }
      ],
      "stateMutability": "view",
      "type": "function"
    },
    {
      "inputs": [
        {
          "internalType": "uint256[]",
          "name": "_tokenIds",
          "type": "uint256[]"
        },
        {
          "internalType": "bytes[]",
          "name": "_sigs",
          "type": "bytes[]"
        }
      ],
      "name": "mintNFT",
      "outputs": [],
      "stateMutability": "payable",
      "type": "function"
    },
    {
      "inputs": [],
      "name": "name",
      "outputs": [
        {
          "internalType": "string",
          "name": "",
          "type": "string"
        }
      ],
      "stateMutability": "view",
      "type": "function"
    },
    {
      "inputs": [],
      "name": "owner",
      "outputs": [
        {
          "internalType": "address",
          "name": "",
          "type": "address"
        }
      ],
      "stateMutability": "view",
      "type": "function"
    },
    {
      "inputs": [
        {
          "internalType": "uint256",
          "name": "tokenId",
          "type": "uint256"
        }
      ],
      "name": "ownerOf",
      "outputs": [
        {
          "internalType": "address",
          "name": "",
          "type": "address"
        }
      ],
      "stateMutability": "view",
      "type": "function"
    },
    {
      "inputs": [],
      "name": "paused",
      "outputs": [
        {
          "internalType": "bool",
          "name": "",
          "type": "bool"
        }
      ],
      "stateMutability": "view",
      "type": "function"
    },
    {
      "inputs": [
        {
          "internalType": "bytes32",
          "name": "_ethSignedMessageHash",
          "type": "bytes32"
        },
        {
          "internalType": "bytes",
          "name": "_signature",
          "type": "bytes"
        }
      ],
      "name": "recoverSigner",
      "outputs": [
        {
          "internalType": "address",
          "name": "",
          "type": "address"
        }
      ],
      "stateMutability": "pure",
      "type": "function"
    },
    {
      "inputs": [
        {
          "internalType": "address",
          "name": "_address",
          "type": "address"
        }
      ],
      "name": "removeFromWhitelist",
      "outputs": [],
      "stateMutability": "nonpayable",
      "type": "function"
    },
    {
      "inputs": [],
      "name": "renounceOwnership",
      "outputs": [],
      "stateMutability": "nonpayable",
      "type": "function"
    },
    {
      "inputs": [
        {
          "internalType": "address",
          "name": "from",
          "type": "address"
        },
        {
          "internalType": "address",
          "name": "to",
          "type": "address"
        },
        {
          "internalType": "uint256",
          "name": "tokenId",
          "type": "uint256"
        }
      ],
      "name": "safeTransferFrom",
      "outputs": [],
      "stateMutability": "nonpayable",
      "type": "function"
    },
    {
      "inputs": [
        {
          "internalType": "address",
          "name": "from",
          "type": "address"
        },
        {
          "internalType": "address",
          "name": "to",
          "type": "address"
        },
        {
          "internalType": "uint256",
          "name": "tokenId",
          "type": "uint256"
        },
        {
          "internalType": "bytes",
          "name": "_data",
          "type": "bytes"
        }
      ],
      "name": "safeTransferFrom",
      "outputs": [],
      "stateMutability": "nonpayable",
      "type": "function"
    },
    {
      "inputs": [
        {
          "internalType": "address",
          "name": "operator",
          "type": "address"
        },
        {
          "internalType": "bool",
          "name": "approved",
          "type": "bool"
        }
      ],
      "name": "setApprovalForAll",
      "outputs": [],
      "stateMutability": "nonpayable",
      "type": "function"
    },
    {
      "inputs": [
        {
          "internalType": "string",
          "name": "_newBaseExtension",
          "type": "string"
        }
      ],
      "name": "setBaseExtension",
      "outputs": [],
      "stateMutability": "nonpayable",
      "type": "function"
    },
    {
      "inputs": [
        {
          "internalType": "string",
          "name": "_newBaseURI",
          "type": "string"
        }
      ],
      "name": "setBaseURI",
      "outputs": [],
      "stateMutability": "nonpayable",
      "type": "function"
    },
    {
      "inputs": [
        {
          "internalType": "bytes",
          "name": "sig",
          "type": "bytes"
        }
      ],
      "name": "splitSignature",
      "outputs": [
        {
          "internalType": "bytes32",
          "name": "r",
          "type": "bytes32"
        },
        {
          "internalType": "bytes32",
          "name": "s",
          "type": "bytes32"
        },
        {
          "internalType": "uint8",
          "name": "v",
          "type": "uint8"
        }
      ],
      "stateMutability": "pure",
      "type": "function"
    },
    {
      "inputs": [
        {
          "internalType": "bytes4",
          "name": "interfaceId",
          "type": "bytes4"
        }
      ],
      "name": "supportsInterface",
      "outputs": [
        {
          "internalType": "bool",
          "name": "",
          "type": "bool"
        }
      ],
      "stateMutability": "view",
      "type": "function"
    },
    {
      "inputs": [],
      "name": "symbol",
      "outputs": [
        {
          "internalType": "string",
          "name": "",
          "type": "string"
        }
      ],
      "stateMutability": "view",
      "type": "function"
    },
    {
      "inputs": [],
      "name": "togglePause",
      "outputs": [],
      "stateMutability": "nonpayable",
      "type": "function"
    },
    {
      "inputs": [
        {
          "internalType": "uint256",
          "name": "index",
          "type": "uint256"
        }
      ],
      "name": "tokenByIndex",
      "outputs": [
        {
          "internalType": "uint256",
          "name": "",
          "type": "uint256"
        }
      ],
      "stateMutability": "view",
      "type": "function"
    },
    {
      "inputs": [
        {
          "internalType": "address",
          "name": "owner",
          "type": "address"
        },
        {
          "internalType": "uint256",
          "name": "index",
          "type": "uint256"
        }
      ],
      "name": "tokenOfOwnerByIndex",
      "outputs": [
        {
          "internalType": "uint256",
          "name": "",
          "type": "uint256"
        }
      ],
      "stateMutability": "view",
      "type": "function"
    },
    {
      "inputs": [
        {
          "internalType": "uint256",
          "name": "tokenId",
          "type": "uint256"
        }
      ],
      "name": "tokenURI",
      "outputs": [
        {
          "internalType": "string",
          "name": "",
          "type": "string"
        }
      ],
      "stateMutability": "view",
      "type": "function"
    },
    {
      "inputs": [],
      "name": "totalSupply",
      "outputs": [
        {
          "internalType": "uint256",
          "name": "",
          "type": "uint256"
        }
      ],
      "stateMutability": "view",
      "type": "function"
    },
    {
      "inputs": [
        {
          "internalType": "address",
          "name": "from",
          "type": "address"
        },
        {
          "internalType": "address",
          "name": "to",
          "type": "address"
        },
        {
          "internalType": "uint256",
          "name": "tokenId",
          "type": "uint256"
        }
      ],
      "name": "transferFrom",
      "outputs": [],
      "stateMutability": "nonpayable",
      "type": "function"
    },
    {
      "inputs": [
        {
          "internalType": "address",
          "name": "newOwner",
          "type": "address"
        }
      ],
      "name": "transferOwnership",
      "outputs": [],
      "stateMutability": "nonpayable",
      "type": "function"
    },
    {
      "inputs": [
        {
          "internalType": "address",
          "name": "_owner",
          "type": "address"
        }
      ],
      "name": "walletOfOwner",
      "outputs": [
        {
          "internalType": "uint256[]",
          "name": "",
          "type": "uint256[]"
        }
      ],
      "stateMutability": "view",
      "type": "function"
    },
    {
      "inputs": [],
      "name": "withdraw",
      "outputs": [],
      "stateMutability": "payable",
      "type": "function"
    }
  ],
  "bytecode": "0x60c06040526005608081905264173539b7b760d91b60a09081526200002891600d919062000245565b50600e805460ff191690553480156200004057600080fd5b506040516200309738038062003097833981016040819052620000639162000396565b8251839083906200007c90600090602085019062000245565b5080516200009290600190602084019062000245565b505050620000af620000a96200017860201b60201c565b6200017c565b620000ba81620001ce565b5050601060205250678ac7230489e800007f8c6065603763fec3f5742441d3833f3f43b982453612d76adb39a885e3006b5f55670de0b6b3a76400007f853b2fefe141400fef543280f93d98bd49996069f632d0d20236afeeed8e46a25567016345785d8a00007fb3edd0d534d647cffdae9f1294f11ad21f3fcf2814bea44c92bbb8d384a57d9e556004600052662386f26fc100007f1588ac671d87f82adc0e6ae8ab009c0de98f92a20243897597e566bc59b9c12655620004ab565b3390565b600a80546001600160a01b038381166001600160a01b0319831681179093556040519116919082907f8be0079c531659141344cd1fd0a4f28419497f9722a3daafe3b4186f6b6457e090600090a35050565b620001d862000178565b6001600160a01b0316620001eb62000236565b6001600160a01b0316146200021d5760405162461bcd60e51b8152600401620002149062000423565b60405180910390fd5b80516200023290600c90602084019062000245565b5050565b600a546001600160a01b031690565b828054620002539062000458565b90600052602060002090601f016020900481019282620002775760008555620002c2565b82601f106200029257805160ff1916838001178555620002c2565b82800160010185558215620002c2579182015b82811115620002c2578251825591602001919060010190620002a5565b50620002d0929150620002d4565b5090565b5b80821115620002d05760008155600101620002d5565b600082601f830112620002fc578081fd5b81516001600160401b038082111562000319576200031962000495565b6040516020601f8401601f191682018101838111838210171562000341576200034162000495565b604052838252858401810187101562000358578485fd5b8492505b838310156200037b57858301810151828401820152918201916200035c565b838311156200038c57848185840101525b5095945050505050565b600080600060608486031215620003ab578283fd5b83516001600160401b0380821115620003c2578485fd5b620003d087838801620002eb565b94506020860151915080821115620003e6578384fd5b620003f487838801620002eb565b935060408601519150808211156200040a578283fd5b506200041986828701620002eb565b9150509250925092565b6020808252818101527f4f776e61626c653a2063616c6c6572206973206e6f7420746865206f776e6572604082015260600190565b6002810460018216806200046d57607f821691505b602082108114156200048f57634e487b7160e01b600052602260045260246000fd5b50919050565b634e487b7160e01b600052604160045260246000fd5b612bdc80620004bb6000396000f3fe60806040526004361061019f5760003560e01c806301ffc9a7146101a457806306fdde03146101da578063081812fc146101fc578063095ea7b31461022957806318160ddd1461024b57806323b872dd1461026d5780632f745c591461028d5780633af32abf146102ad5780633ccfd60b146102cd57806342842e0e146102d5578063438b6300146102f55780634a7f9261146103225780634f6ccce71461033557806355f804b3146103555780635c975abb146103755780636352211e1461038a5780636d444678146103aa57806370a08231146103ca578063715018a6146103ea5780638ab1d681146103ff5780638da5cb5b1461041f57806395d89b411461043457806397aba7f914610449578063a22cb46514610469578063a7bb580314610489578063b88d4fde146104b8578063bae6da41146104d8578063c4ae3168146104f8578063c87b56dd1461050d578063da3ef23f1461052d578063e43252d71461054d578063e985e9c51461056d578063f2fde38b1461058d578063f3052d26146105ad578063fa540801146105cd578063fe6ca8a9146105ed575b600080fd5b3480156101b057600080fd5b506101c46101bf36600461214c565b61060d565b6040516101d191906123ce565b60405180910390f35b3480156101e657600080fd5b506101ef61063a565b6040516101d19190612419565b34801561020857600080fd5b5061021c6102173660046120fa565b6106cc565b6040516101d19190612339565b34801561023557600080fd5b50610249610244366004611fc7565b610718565b005b34801561025757600080fd5b506102606107b0565b6040516101d191906123d9565b34801561027957600080fd5b50610249610288366004611eed565b6107b6565b34801561029957600080fd5b506102606102a8366004611fc7565b6107ee565b3480156102b957600080fd5b506101c46102c8366004611ea1565b610840565b61024961085e565b3480156102e157600080fd5b506102496102f0366004611eed565b610909565b34801561030157600080fd5b50610315610310366004611ea1565b610924565b6040516101d1919061238a565b610249610330366004612044565b6109e1565b34801561034157600080fd5b506102606103503660046120fa565b610be6565b34801561036157600080fd5b506102496103703660046121b6565b610c41565b34801561038157600080fd5b506101c4610c97565b34801561039657600080fd5b5061021c6103a53660046120fa565b610ca0565b3480156103b657600080fd5b506101c46103c5366004611ff0565b610cd5565b3480156103d657600080fd5b506102606103e5366004611ea1565b610d18565b3480156103f657600080fd5b50610249610d5c565b34801561040b57600080fd5b5061024961041a366004611ea1565b610da7565b34801561042b57600080fd5b5061021c610e2f565b34801561044057600080fd5b506101ef610e3e565b34801561045557600080fd5b5061021c610464366004612112565b610e4d565b34801561047557600080fd5b50610249610484366004611f8d565b610ebc565b34801561049557600080fd5b506104a96104a4366004612184565b610f8a565b6040516101d1939291906123e2565b3480156104c457600080fd5b506102496104d3366004611f28565b610fce565b3480156104e457600080fd5b506102606104f33660046120fa565b611007565b34801561050457600080fd5b50610249611081565b34801561051957600080fd5b506101ef6105283660046120fa565b6110d4565b34801561053957600080fd5b506102496105483660046121b6565b61115a565b34801561055957600080fd5b50610249610568366004611ea1565b6111ac565b34801561057957600080fd5b506101c4610588366004611ebb565b611237565b34801561059957600080fd5b506102496105a8366004611ea1565b611265565b3480156105b957600080fd5b506102606105c83660046120fa565b6112d3565b3480156105d957600080fd5b506102606105e83660046120fa565b611374565b3480156105f957600080fd5b506101c4610608366004611fc7565b611387565b60006001600160e01b0319821663780e9d6360e01b14806106325750610632826113b2565b90505b919050565b60606000805461064990612ac4565b80601f016020809104026020016040519081016040528092919081815260200182805461067590612ac4565b80156106c25780601f10610697576101008083540402835291602001916106c2565b820191906000526020600020905b8154815290600101906020018083116106a557829003601f168201915b5050505050905090565b60006106d7826113f2565b6106fc5760405162461bcd60e51b81526004016106f3906127a8565b60405180910390fd5b506000908152600460205260409020546001600160a01b031690565b600061072382610ca0565b9050806001600160a01b0316836001600160a01b031614156107575760405162461bcd60e51b81526004016106f390612872565b806001600160a01b031661076961140f565b6001600160a01b0316148061078557506107858161058861140f565b6107a15760405162461bcd60e51b81526004016106f390612657565b6107ab8383611413565b505050565b60085490565b6107c76107c161140f565b82611481565b6107e35760405162461bcd60e51b81526004016106f3906128dd565b6107ab838383611506565b60006107f983610d18565b82106108175760405162461bcd60e51b81526004016106f39061242c565b506001600160a01b03919091166000908152600660209081526040808320938352929052205490565b6001600160a01b03166000908152600b602052604090205460ff1690565b61086661140f565b6001600160a01b0316610877610e2f565b6001600160a01b03161461089d5760405162461bcd60e51b81526004016106f3906127f4565b6000336001600160a01b0316476040516108b690612336565b60006040518083038185875af1925050503d80600081146108f3576040519150601f19603f3d011682016040523d82523d6000602084013e6108f8565b606091505b505090508061090657600080fd5b50565b6107ab83838360405180602001604052806000815250610fce565b6060600061093183610d18565b90506000816001600160401b0381111561095b57634e487b7160e01b600052604160045260246000fd5b604051908082528060200260200182016040528015610984578160200160208202803683370190505b50905060005b828110156109d95761099c85826107ee565b8282815181106109bc57634e487b7160e01b600052603260045260246000fd5b6020908102919091010152806109d181612aff565b91505061098a565b509392505050565b6109ea33610840565b80610a0d57506109f8610e2f565b6001600160a01b0316336001600160a01b0316145b610a295760405162461bcd60e51b81526004016106f3906129ac565b600e5460ff1615610a4c5760405162461bcd60e51b81526004016106f3906129d5565b6000610a56610e2f565b6001600160a01b0316336001600160a01b031614905080610a9957610a7a83611621565b341015610a995760405162461bcd60e51b81526004016106f390612777565b60005b8351811015610be057610afe33858381518110610ac957634e487b7160e01b600052603260045260246000fd5b6020026020010151858481518110610af157634e487b7160e01b600052603260045260246000fd5b6020026020010151610cd5565b610b0757600080fd5b6000610b39858381518110610b2c57634e487b7160e01b600052603260045260246000fd5b60200260200101516112d3565b9050806001148015610b49575082155b15610b545750610bce565b610b5e3382611387565b8015610b68575082155b15610b735750610bce565b336000818152600f602090815260408083208584529091529020805460ff191660011790558551610bcc9190879085908110610bbf57634e487b7160e01b600052603260045260246000fd5b602002602001015161168b565b505b80610bd881612aff565b915050610a9c565b50505050565b6000610bf06107b0565b8210610c0e5760405162461bcd60e51b81526004016106f390612960565b60088281548110610c2f57634e487b7160e01b600052603260045260246000fd5b90600052602060002001549050919050565b610c4961140f565b6001600160a01b0316610c5a610e2f565b6001600160a01b031614610c805760405162461bcd60e51b81526004016106f3906127f4565b8051610c9390600c906020840190611d14565b5050565b600e5460ff1681565b6000818152600260205260408120546001600160a01b0316806106325760405162461bcd60e51b81526004016106f3906126f9565b600080610ce184611007565b90506000610cee82611374565b9050856001600160a01b0316610d048286610e4d565b6001600160a01b0316149695505050505050565b60006001600160a01b038216610d405760405162461bcd60e51b81526004016106f3906126af565b506001600160a01b031660009081526003602052604090205490565b610d6461140f565b6001600160a01b0316610d75610e2f565b6001600160a01b031614610d9b5760405162461bcd60e51b81526004016106f3906127f4565b610da560006116a5565b565b610daf61140f565b6001600160a01b0316610dc0610e2f565b6001600160a01b031614610de65760405162461bcd60e51b81526004016106f3906127f4565b6001600160a01b0381166000818152600b6020526040808220805460ff19169055517f7ba8c29c8ae8642559f7ee11333d6fca2aa7cdbdcb3a9e28ca37ab66ee5b63159190a250565b600a546001600160a01b031690565b60606001805461064990612ac4565b600080600080610e5c85610f8a565b92509250925060018682858560405160008152602001604052604051610e8594939291906123fb565b6020604051602081039080840390855afa158015610ea7573d6000803e3d6000fd5b5050604051601f190151979650505050505050565b610ec461140f565b6001600160a01b0316826001600160a01b03161415610ef55760405162461bcd60e51b81526004016106f390612589565b8060056000610f0261140f565b6001600160a01b03908116825260208083019390935260409182016000908120918716808252919093529120805460ff191692151592909217909155610f4661140f565b6001600160a01b03167f17307eab39ab6107e8899845ad3d59bd9653f200f220920489ca2b5937696c3183604051610f7e91906123ce565b60405180910390a35050565b60008060008351604114610fb05760405162461bcd60e51b81526004016106f39061292e565b50505060208101516040820151606090920151909260009190911a90565b610fdf610fd961140f565b83611481565b610ffb5760405162461bcd60e51b81526004016106f3906128dd565b610be0848484846116f7565b600061101233610840565b806110355750611020610e2f565b6001600160a01b0316336001600160a01b0316145b6110515760405162461bcd60e51b81526004016106f3906129ac565b3082604051602001611064929190612227565b604051602081830303815290604052805190602001209050919050565b61108961140f565b6001600160a01b031661109a610e2f565b6001600160a01b0316146110c05760405162461bcd60e51b81526004016106f3906127f4565b600e805460ff19811660ff90911615179055565b60606110df826113f2565b6110fb5760405162461bcd60e51b81526004016106f390612608565b600061110561172a565b905060008151116111255760405180602001604052806000815250611153565b8061112f84611739565b600d60405160200161114393929190612244565b6040516020818303038152906040525b9392505050565b61116261140f565b6001600160a01b0316611173610e2f565b6001600160a01b0316146111995760405162461bcd60e51b81526004016106f3906127f4565b8051610c9390600d906020840190611d14565b6111b461140f565b6001600160a01b03166111c5610e2f565b6001600160a01b0316146111eb5760405162461bcd60e51b81526004016106f3906127f4565b6001600160a01b0381166000818152600b6020526040808220805460ff19166001179055517fa850ae9193f515cbae8d35e8925bd2be26627fc91bce650b8652ed254e9cab039190a250565b6001600160a01b03918216600090815260056020908152604080832093909416825291909152205460ff1690565b61126d61140f565b6001600160a01b031661127e610e2f565b6001600160a01b0316146112a45760405162461bcd60e51b81526004016106f3906127f4565b6001600160a01b0381166112ca5760405162461bcd60e51b81526004016106f3906124c9565b610906816116a5565b600080821180156112e5575061039482105b6113015760405162461bcd60e51b81526004016106f3906128b3565b6002821161131157506001610635565b600282118015611322575060108211155b1561132f57506002610635565b601082118015611340575060778211155b1561134d57506003610635565b60778211801561135f57506103938211155b1561136c57506004610635565b506000919050565b6000816040516020016110649190612306565b6001600160a01b03919091166000908152600f60209081526040808320938352929052205460ff1690565b60006001600160e01b031982166380ac58cd60e01b14806113e357506001600160e01b03198216635b5e139f60e01b145b80610632575061063282611853565b6000908152600260205260409020546001600160a01b0316151590565b3390565b600081815260046020526040902080546001600160a01b0319166001600160a01b038416908117909155819061144882610ca0565b6001600160a01b03167f8c5be1e5ebec7d5bd14f71427d1e84f3dd0314c0f7b2291e5b200ac8c7c3b92560405160405180910390a45050565b600061148c826113f2565b6114a85760405162461bcd60e51b81526004016106f3906125bc565b60006114b383610ca0565b9050806001600160a01b0316846001600160a01b031614806114ee5750836001600160a01b03166114e3846106cc565b6001600160a01b0316145b806114fe57506114fe8185611237565b949350505050565b826001600160a01b031661151982610ca0565b6001600160a01b03161461153f5760405162461bcd60e51b81526004016106f390612829565b6001600160a01b0382166115655760405162461bcd60e51b81526004016106f390612545565b61157083838361186c565b61157b600082611413565b6001600160a01b03831660009081526003602052604081208054600192906115a4908490612a81565b90915550506001600160a01b03821660009081526003602052604081208054600192906115d2908490612a55565b909155505060008181526002602052604080822080546001600160a01b0319166001600160a01b038681169182179092559151849391871691600080516020612b8783398151915291a4505050565b600080805b83518110156116845760106000611656868481518110610b2c57634e487b7160e01b600052603260045260246000fd5b815260200190815260200160002054826116709190612a55565b91508061167c81612aff565b915050611626565b5092915050565b610c938282604051806020016040528060008152506118f5565b600a80546001600160a01b038381166001600160a01b0319831681179093556040519116919082907f8be0079c531659141344cd1fd0a4f28419497f9722a3daafe3b4186f6b6457e090600090a35050565b611702848484611506565b61170e84848484611928565b610be05760405162461bcd60e51b81526004016106f390612477565b6060600c805461064990612ac4565b60608161175e57506040805180820190915260018152600360fc1b6020820152610635565b8160005b8115611788578061177281612aff565b91506117819050600a83612a6d565b9150611762565b6000816001600160401b038111156117b057634e487b7160e01b600052604160045260246000fd5b6040519080825280601f01601f1916602001820160405280156117da576020820181803683370190505b5090505b84156114fe576117ef600183612a81565b91506117fc600a86612b1a565b611807906030612a55565b60f81b81838151811061182a57634e487b7160e01b600052603260045260246000fd5b60200101906001600160f81b031916908160001a90535061184c600a86612a6d565b94506117de565b6001600160e01b031981166301ffc9a760e01b14919050565b6118778383836107ab565b6001600160a01b0383166118935761188e81611a43565b6118b6565b816001600160a01b0316836001600160a01b0316146118b6576118b68382611a87565b6001600160a01b0382166118d2576118cd81611b24565b6107ab565b826001600160a01b0316826001600160a01b0316146107ab576107ab8282611bfd565b6118ff8383611c41565b61190c6000848484611928565b6107ab5760405162461bcd60e51b81526004016106f390612477565b600061193c846001600160a01b0316611d0e565b15611a3857836001600160a01b031663150b7a0261195861140f565b8786866040518563ffffffff1660e01b815260040161197a949392919061234d565b602060405180830381600087803b15801561199457600080fd5b505af19250505080156119c4575060408051601f3d908101601f191682019092526119c191810190612168565b60015b611a1e573d8080156119f2576040519150601f19603f3d011682016040523d82523d6000602084013e6119f7565b606091505b508051611a165760405162461bcd60e51b81526004016106f390612477565b805181602001fd5b6001600160e01b031916630a85bd0160e11b1490506114fe565b506001949350505050565b600880546000838152600960205260408120829055600182018355919091527ff3f7a9fe364faab93b216da50a3214154f22a0a2b415b23a84c8169e8b636ee30155565b60006001611a9484610d18565b611a9e9190612a81565b600083815260076020526040902054909150808214611af1576001600160a01b03841660009081526006602090815260408083208584528252808320548484528184208190558352600790915290208190555b5060009182526007602090815260408084208490556001600160a01b039094168352600681528383209183525290812055565b600854600090611b3690600190612a81565b60008381526009602052604081205460088054939450909284908110611b6c57634e487b7160e01b600052603260045260246000fd5b906000526020600020015490508060088381548110611b9b57634e487b7160e01b600052603260045260246000fd5b6000918252602080832090910192909255828152600990915260408082208490558582528120556008805480611be157634e487b7160e01b600052603160045260246000fd5b6001900381819060005260206000200160009055905550505050565b6000611c0883610d18565b6001600160a01b039093166000908152600660209081526040808320868452825280832085905593825260079052919091209190915550565b6001600160a01b038216611c675760405162461bcd60e51b81526004016106f390612742565b611c70816113f2565b15611c8d5760405162461bcd60e51b81526004016106f39061250f565b611c996000838361186c565b6001600160a01b0382166000908152600360205260408120805460019290611cc2908490612a55565b909155505060008181526002602052604080822080546001600160a01b0319166001600160a01b0386169081179091559051839290600080516020612b87833981519152908290a45050565b3b151590565b828054611d2090612ac4565b90600052602060002090601f016020900481019282611d425760008555611d88565b82601f10611d5b57805160ff1916838001178555611d88565b82800160010185558215611d88579182015b82811115611d88578251825591602001919060010190611d6d565b50611d94929150611d98565b5090565b5b80821115611d945760008155600101611d99565b60006001600160401b03831115611dc657611dc6612b5a565b611dd9601f8401601f19166020016129fd565b9050828152838383011115611ded57600080fd5b828260208301376000602084830101529392505050565b80356001600160a01b038116811461063557600080fd5b600082601f830112611e2b578081fd5b81356020611e40611e3b83612a26565b6129fd565b82815281810190858301855b85811015611e7557611e63898684358b0101611e82565b84529284019290840190600101611e4c565b5090979650505050505050565b600082601f830112611e92578081fd5b61115383833560208501611dad565b600060208284031215611eb2578081fd5b61115382611e04565b60008060408385031215611ecd578081fd5b611ed683611e04565b9150611ee460208401611e04565b90509250929050565b600080600060608486031215611f01578081fd5b611f0a84611e04565b9250611f1860208501611e04565b9150604084013590509250925092565b60008060008060808587031215611f3d578081fd5b611f4685611e04565b9350611f5460208601611e04565b92506040850135915060608501356001600160401b03811115611f75578182fd5b611f8187828801611e82565b91505092959194509250565b60008060408385031215611f9f578182fd5b611fa883611e04565b915060208301358015158114611fbc578182fd5b809150509250929050565b60008060408385031215611fd9578182fd5b611fe283611e04565b946020939093013593505050565b600080600060608486031215612004578283fd5b61200d84611e04565b92506020840135915060408401356001600160401b0381111561202e578182fd5b61203a86828701611e82565b9150509250925092565b60008060408385031215612056578182fd5b82356001600160401b038082111561206c578384fd5b818501915085601f83011261207f578384fd5b8135602061208f611e3b83612a26565b82815281810190858301838502870184018b10156120ab578889fd5b8896505b848710156120cd5780358352600196909601959183019183016120af565b50965050860135925050808211156120e3578283fd5b506120f085828601611e1b565b9150509250929050565b60006020828403121561210b578081fd5b5035919050565b60008060408385031215612124578182fd5b8235915060208301356001600160401b03811115612140578182fd5b6120f085828601611e82565b60006020828403121561215d578081fd5b813561115381612b70565b600060208284031215612179578081fd5b815161115381612b70565b600060208284031215612195578081fd5b81356001600160401b038111156121aa578182fd5b6114fe84828501611e82565b6000602082840312156121c7578081fd5b81356001600160401b038111156121dc578182fd5b8201601f810184136121ec578182fd5b6114fe84823560208401611dad565b60008151808452612213816020860160208601612a98565b601f01601f19169290920160200192915050565b60609290921b6001600160601b0319168252601482015260340190565b6000845160206122578285838a01612a98565b85519184019161226a8184848a01612a98565b855492019183906002810460018083168061228657607f831692505b8583108114156122a457634e487b7160e01b88526022600452602488fd5b8080156122b857600181146122c9576122f5565b60ff198516885283880195506122f5565b6122d28b612a49565b895b858110156122ed5781548a8201529084019088016122d4565b505083880195505b50939b9a5050505050505050505050565b7b0ca2ba3432b932bab69029b4b3b732b21026b2b9b9b0b3b29d05199960211b8152601c810191909152603c0190565b90565b6001600160a01b0391909116815260200190565b6001600160a01b0385811682528416602082015260408101839052608060608201819052600090612380908301846121fb565b9695505050505050565b6020808252825182820181905260009190848201906040850190845b818110156123c2578351835292840192918401916001016123a6565b50909695505050505050565b901515815260200190565b90815260200190565b928352602083019190915260ff16604082015260600190565b93845260ff9290921660208401526040830152606082015260800190565b60006020825261115360208301846121fb565b6020808252602b908201527f455243373231456e756d657261626c653a206f776e657220696e646578206f7560408201526a74206f6620626f756e647360a81b606082015260800190565b60208082526032908201527f4552433732313a207472616e7366657220746f206e6f6e20455243373231526560408201527131b2b4bb32b91034b6b83632b6b2b73a32b960711b606082015260800190565b60208082526026908201527f4f776e61626c653a206e6577206f776e657220697320746865207a65726f206160408201526564647265737360d01b606082015260800190565b6020808252601c908201527b115490cdcc8c4e881d1bdad95b88185b1c9958591e481b5a5b9d195960221b604082015260600190565b60208082526024908201527f4552433732313a207472616e7366657220746f20746865207a65726f206164646040820152637265737360e01b606082015260800190565b60208082526019908201527822a9219b99189d1030b8383937bb32903a379031b0b63632b960391b604082015260600190565b6020808252602c908201527f4552433732313a206f70657261746f7220717565727920666f72206e6f6e657860408201526b34b9ba32b73a103a37b5b2b760a11b606082015260800190565b6020808252602f908201527f4552433732314d657461646174613a2055524920717565727920666972206e6f60408201526e3732bc34b9ba32b73a103a37b5b2b760891b606082015260800190565b60208082526038908201527f4552433732313a20617070726f76652063616c6c6572206973206e6f74206f776040820152771b995c881b9bdc88185c1c1c9bdd995908199bdc88185b1b60421b606082015260800190565b6020808252602a908201527f4552433732313a2062616c616e636520717565727920666f7220746865207a65604082015269726f206164647265737360b01b606082015260800190565b60208082526029908201527f4552433732313a206f776e657220717565727920666f72206e6f6e657869737460408201526832b73a103a37b5b2b760b91b606082015260800190565b6020808252818101527f4552433732313a206d696e7420746f20746865207a65726f2061646472657373604082015260600190565b602080825260179082015276139bdd08195b9bdd59da08195d1a195c881cd95b991959604a1b604082015260600190565b6020808252602c908201527f4552433732313a20617070726f76656420717565727920666f72206e6f6e657860408201526b34b9ba32b73a103a37b5b2b760a11b606082015260800190565b6020808252818101527f4f776e61626c653a2063616c6c6572206973206e6f7420746865206f776e6572604082015260600190565b60208082526029908201527f4552433732313a207472616e73666572206f6620746f6b656e2074686174206960408201526839903737ba1037bbb760b91b606082015260800190565b60208082526021908201527f4552433732313a20617070726f76616c20746f2063757272656e74206f776e656040820152603960f91b606082015260800190565b60208082526010908201526f125b9d985b1a59081d1bdadad95b925960821b604082015260600190565b60208082526031908201527f4552433732313a207472616e736665722063616c6c6572206973206e6f74206f6040820152701ddb995c881b9bdc88185c1c1c9bdd9959607a1b606082015260800190565b602080825260189082015277092dcecc2d8d2c840e6d2cedcc2e8eae4ca40d8cadccee8d60431b604082015260600190565b6020808252602c908201527f455243373231456e756d657261626c653a20676c6f62616c20696e646578206f60408201526b7574206f6620626f756e647360a01b606082015260800190565b6020808252600f908201526e139bdd0815da1a5d195b1a5cdd1959608a1b604082015260600190565b6020808252600e908201526d135a5b9d081a5cc81c185d5cd95960921b604082015260600190565b6040518181016001600160401b0381118282101715612a1e57612a1e612b5a565b604052919050565b60006001600160401b03821115612a3f57612a3f612b5a565b5060209081020190565b60009081526020902090565b60008219821115612a6857612a68612b2e565b500190565b600082612a7c57612a7c612b44565b500490565b600082821015612a9357612a93612b2e565b500390565b60005b83811015612ab3578181015183820152602001612a9b565b83811115610be05750506000910152565b600281046001821680612ad857607f821691505b60208210811415612af957634e487b7160e01b600052602260045260246000fd5b50919050565b6000600019821415612b1357612b13612b2e565b5060010190565b600082612b2957612b29612b44565b500690565b634e487b7160e01b600052601160045260246000fd5b634e487b7160e01b600052601260045260246000fd5b634e487b7160e01b600052604160045260246000fd5b6001600160e01b03198116811461090657600080fdfeddf252ad1be2c89b69c2b068fc378daa952ba7f163c4a11628f55a4df523b3efa264697066735822122097ea39a42e37f04721f21c5bfe8c086a1f636f704a74c3c73704da7f6b755e9f64736f6c63430008000033",
  "linkReferences": {},
  "deployedLinkReferences": {}
}